{
  "contractName": "TokenSale",
  "abi": [
    {
      "inputs": [
        {
          "internalType": "contract IERC20",
          "name": "_tokenContract",
          "type": "address"
        },
        {
          "internalType": "uint256",
          "name": "_priceSeedRound",
          "type": "uint256"
        },
        {
          "internalType": "uint256",
          "name": "_priceAngleRound",
          "type": "uint256"
        },
        {
          "internalType": "uint256",
          "name": "_pricePrivate",
          "type": "uint256"
        },
        {
          "internalType": "uint256",
          "name": "_pricePublic",
          "type": "uint256"
        }
      ],
      "stateMutability": "nonpayable",
      "type": "constructor"
    },
    {
      "anonymous": false,
      "inputs": [
        {
          "indexed": false,
          "internalType": "address",
          "name": "buyer",
          "type": "address"
        },
        {
          "indexed": false,
          "internalType": "uint256",
          "name": "amount",
          "type": "uint256"
        }
      ],
      "name": "Sold",
      "type": "event"
    },
    {
      "inputs": [],
      "name": "priceAngleRound",
      "outputs": [
        {
          "internalType": "uint256",
          "name": "",
          "type": "uint256"
        }
      ],
      "stateMutability": "view",
      "type": "function",
      "constant": true
    },
    {
      "inputs": [],
      "name": "pricePrivate",
      "outputs": [
        {
          "internalType": "uint256",
          "name": "",
          "type": "uint256"
        }
      ],
      "stateMutability": "view",
      "type": "function",
      "constant": true
    },
    {
      "inputs": [],
      "name": "pricePublic",
      "outputs": [
        {
          "internalType": "uint256",
          "name": "",
          "type": "uint256"
        }
      ],
      "stateMutability": "view",
      "type": "function",
      "constant": true
    },
    {
      "inputs": [],
      "name": "priceSeedRound",
      "outputs": [
        {
          "internalType": "uint256",
          "name": "",
          "type": "uint256"
        }
      ],
      "stateMutability": "view",
      "type": "function",
      "constant": true
    },
    {
      "inputs": [],
      "name": "tokenContract",
      "outputs": [
        {
          "internalType": "contract IERC20",
          "name": "",
          "type": "address"
        }
      ],
      "stateMutability": "view",
      "type": "function",
      "constant": true
    },
    {
      "inputs": [],
      "name": "tokensSold",
      "outputs": [
        {
          "internalType": "uint256",
          "name": "",
          "type": "uint256"
        }
      ],
      "stateMutability": "view",
      "type": "function",
      "constant": true
    },
    {
      "inputs": [
        {
          "internalType": "uint256",
          "name": "value",
          "type": "uint256"
        }
      ],
      "name": "buyTokensSeedRound",
      "outputs": [],
      "stateMutability": "payable",
      "type": "function",
      "payable": true
    },
    {
      "inputs": [
        {
          "internalType": "uint256",
          "name": "value",
          "type": "uint256"
        }
      ],
      "name": "buyTokensAngleRound",
      "outputs": [],
      "stateMutability": "payable",
      "type": "function",
      "payable": true
    },
    {
      "inputs": [
        {
          "internalType": "uint256",
          "name": "value",
          "type": "uint256"
        }
      ],
      "name": "buyTokensPrivate",
      "outputs": [],
      "stateMutability": "payable",
      "type": "function",
      "payable": true
    },
    {
      "inputs": [
        {
          "internalType": "uint256",
          "name": "value",
          "type": "uint256"
        }
      ],
      "name": "buyTokensPublic",
      "outputs": [],
      "stateMutability": "payable",
      "type": "function",
      "payable": true
    }
  ],
  "bytecode": "0x60806040523480156200001157600080fd5b50604051620013e9380380620013e983398181016040528101906200003791906200010d565b33600560006101000a81548173ffffffffffffffffffffffffffffffffffffffff021916908373ffffffffffffffffffffffffffffffffffffffff160217905550846000806101000a81548173ffffffffffffffffffffffffffffffffffffffff021916908373ffffffffffffffffffffffffffffffffffffffff16021790555081600281905550806003819055508360048190555082600181905550505050505062000215565b600081519050620000f081620001e1565b92915050565b6000815190506200010781620001fb565b92915050565b600080600080600060a086880312156200012657600080fd5b60006200013688828901620000df565b95505060206200014988828901620000f6565b94505060406200015c88828901620000f6565b93505060606200016f88828901620000f6565b92505060806200018288828901620000f6565b9150509295509295909350565b60006200019c82620001b7565b9050919050565b6000620001b0826200018f565b9050919050565b600073ffffffffffffffffffffffffffffffffffffffff82169050919050565b6000819050919050565b620001ec81620001a3565b8114620001f857600080fd5b50565b6200020681620001d7565b81146200021257600080fd5b50565b6111c480620002256000396000f3fe6080604052600436106100915760003560e01c80636799f67a116100595780636799f67a1461015e578063940e538b1461018957806396cb6ea1146101b4578063c9d0e054146101d0578063cfe55f4f146101ec57610091565b8063102e766d146100965780633c385281146100c157806344a29d00146100ec578063518ab2a81461010857806355a373d614610133575b600080fd5b3480156100a257600080fd5b506100ab610208565b6040516100b89190610f11565b60405180910390f35b3480156100cd57600080fd5b506100d661020e565b6040516100e39190610f11565b60405180910390f35b61010660048036038101906101019190610d76565b610214565b005b34801561011457600080fd5b5061011d6104c5565b60405161012a9190610f11565b60405180910390f35b34801561013f57600080fd5b506101486104cb565b6040516101559190610eb6565b60405180910390f35b34801561016a57600080fd5b506101736104ef565b6040516101809190610f11565b60405180910390f35b34801561019557600080fd5b5061019e6104f5565b6040516101ab9190610f11565b60405180910390f35b6101ce60048036038101906101c99190610d76565b6104fb565b005b6101ea60048036038101906101e59190610d76565b6107ac565b005b61020660048036038101906102019190610d76565b610a5d565b005b60035481565b60045481565b60008111610257576040517f08c379a000000000000000000000000000000000000000000000000000000000815260040161024e90610ed1565b60405180910390fd5b6000678ac7230489e800006001546064846102729190610fc4565b61027c9190610f93565b6102869190610fc4565b90508060008054906101000a900473ffffffffffffffffffffffffffffffffffffffff1673ffffffffffffffffffffffffffffffffffffffff166370a08231600560009054906101000a900473ffffffffffffffffffffffffffffffffffffffff166040518263ffffffff1660e01b81526004016103049190610e3b565b60206040518083038186803b15801561031c57600080fd5b505afa158015610330573d6000803e3d6000fd5b505050506040513d601f19601f820116820180604052508101906103549190610d9f565b1015610395576040517f08c379a000000000000000000000000000000000000000000000000000000000815260040161038c90610ef1565b60405180910390fd5b7fae92ab4b6f8f401ead768d3273e6bb937a13e39827d19c6376e8fd4512a05d9a33826040516103c6929190610e8d565b60405180910390a180600660008282546103e09190610f3d565b9250508190555060008054906101000a900473ffffffffffffffffffffffffffffffffffffffff1673ffffffffffffffffffffffffffffffffffffffff166323b872dd600560009054906101000a900473ffffffffffffffffffffffffffffffffffffffff1633846040518463ffffffff1660e01b815260040161046693929190610e56565b602060405180830381600087803b15801561048057600080fd5b505af1158015610494573d6000803e3d6000fd5b505050506040513d601f19601f820116820180604052508101906104b89190610d4d565b6104c157600080fd5b5050565b60065481565b60008054906101000a900473ffffffffffffffffffffffffffffffffffffffff1681565b60015481565b60025481565b6000811161053e576040517f08c379a000000000000000000000000000000000000000000000000000000000815260040161053590610ed1565b60405180910390fd5b6000678ac7230489e800006002546064846105599190610fc4565b6105639190610f93565b61056d9190610fc4565b90508060008054906101000a900473ffffffffffffffffffffffffffffffffffffffff1673ffffffffffffffffffffffffffffffffffffffff166370a08231600560009054906101000a900473ffffffffffffffffffffffffffffffffffffffff166040518263ffffffff1660e01b81526004016105eb9190610e3b565b60206040518083038186803b15801561060357600080fd5b505afa158015610617573d6000803e3d6000fd5b505050506040513d601f19601f8201168201806040525081019061063b9190610d9f565b101561067c576040517f08c379a000000000000000000000000000000000000000000000000000000000815260040161067390610ef1565b60405180910390fd5b7fae92ab4b6f8f401ead768d3273e6bb937a13e39827d19c6376e8fd4512a05d9a33826040516106ad929190610e8d565b60405180910390a180600660008282546106c79190610f3d565b9250508190555060008054906101000a900473ffffffffffffffffffffffffffffffffffffffff1673ffffffffffffffffffffffffffffffffffffffff166323b872dd600560009054906101000a900473ffffffffffffffffffffffffffffffffffffffff1633846040518463ffffffff1660e01b815260040161074d93929190610e56565b602060405180830381600087803b15801561076757600080fd5b505af115801561077b573d6000803e3d6000fd5b505050506040513d601f19601f8201168201806040525081019061079f9190610d4d565b6107a857600080fd5b5050565b600081116107ef576040517f08c379a00000000000000000000000000000000000000000000000000000000081526004016107e690610ed1565b60405180910390fd5b6000678ac7230489e8000060045460648461080a9190610fc4565b6108149190610f93565b61081e9190610fc4565b90508060008054906101000a900473ffffffffffffffffffffffffffffffffffffffff1673ffffffffffffffffffffffffffffffffffffffff166370a08231600560009054906101000a900473ffffffffffffffffffffffffffffffffffffffff166040518263ffffffff1660e01b815260040161089c9190610e3b565b60206040518083038186803b1580156108b457600080fd5b505afa1580156108c8573d6000803e3d6000fd5b505050506040513d601f19601f820116820180604052508101906108ec9190610d9f565b101561092d576040517f08c379a000000000000000000000000000000000000000000000000000000000815260040161092490610ef1565b60405180910390fd5b7fae92ab4b6f8f401ead768d3273e6bb937a13e39827d19c6376e8fd4512a05d9a338260405161095e929190610e8d565b60405180910390a180600660008282546109789190610f3d565b9250508190555060008054906101000a900473ffffffffffffffffffffffffffffffffffffffff1673ffffffffffffffffffffffffffffffffffffffff166323b872dd600560009054906101000a900473ffffffffffffffffffffffffffffffffffffffff1633846040518463ffffffff1660e01b81526004016109fe93929190610e56565b602060405180830381600087803b158015610a1857600080fd5b505af1158015610a2c573d6000803e3d6000fd5b505050506040513d601f19601f82011682018060405250810190610a509190610d4d565b610a5957600080fd5b5050565b60008111610aa0576040517f08c379a0000000000000000000000000000000000000000000000000000000008152600401610a9790610ed1565b60405180910390fd5b6000678ac7230489e80000600354606484610abb9190610fc4565b610ac59190610f93565b610acf9190610fc4565b90508060008054906101000a900473ffffffffffffffffffffffffffffffffffffffff1673ffffffffffffffffffffffffffffffffffffffff166370a08231600560009054906101000a900473ffffffffffffffffffffffffffffffffffffffff166040518263ffffffff1660e01b8152600401610b4d9190610e3b565b60206040518083038186803b158015610b6557600080fd5b505afa158015610b79573d6000803e3d6000fd5b505050506040513d601f19601f82011682018060405250810190610b9d9190610d9f565b1015610bde576040517f08c379a0000000000000000000000000000000000000000000000000000000008152600401610bd590610ef1565b60405180910390fd5b7fae92ab4b6f8f401ead768d3273e6bb937a13e39827d19c6376e8fd4512a05d9a3382604051610c0f929190610e8d565b60405180910390a18060066000828254610c299190610f3d565b9250508190555060008054906101000a900473ffffffffffffffffffffffffffffffffffffffff1673ffffffffffffffffffffffffffffffffffffffff166323b872dd600560009054906101000a900473ffffffffffffffffffffffffffffffffffffffff1633846040518463ffffffff1660e01b8152600401610caf93929190610e56565b602060405180830381600087803b158015610cc957600080fd5b505af1158015610cdd573d6000803e3d6000fd5b505050506040513d601f19601f82011682018060405250810190610d019190610d4d565b610d0a57600080fd5b5050565b600081519050610d1d81611160565b92915050565b600081359050610d3281611177565b92915050565b600081519050610d4781611177565b92915050565b600060208284031215610d5f57600080fd5b6000610d6d84828501610d0e565b91505092915050565b600060208284031215610d8857600080fd5b6000610d9684828501610d23565b91505092915050565b600060208284031215610db157600080fd5b6000610dbf84828501610d38565b91505092915050565b610dd18161101e565b82525050565b610de081611066565b82525050565b6000610df3602683610f2c565b9150610dfe826110e8565b604082019050919050565b6000610e16601183610f2c565b9150610e2182611137565b602082019050919050565b610e358161105c565b82525050565b6000602082019050610e506000830184610dc8565b92915050565b6000606082019050610e6b6000830186610dc8565b610e786020830185610dc8565b610e856040830184610e2c565b949350505050565b6000604082019050610ea26000830185610dc8565b610eaf6020830184610e2c565b9392505050565b6000602082019050610ecb6000830184610dd7565b92915050565b60006020820190508181036000830152610eea81610de6565b9050919050565b60006020820190508181036000830152610f0a81610e09565b9050919050565b6000602082019050610f266000830184610e2c565b92915050565b600082825260208201905092915050565b6000610f488261105c565b9150610f538361105c565b9250827fffffffffffffffffffffffffffffffffffffffffffffffffffffffffffffffff03821115610f8857610f8761108a565b5b828201905092915050565b6000610f9e8261105c565b9150610fa98361105c565b925082610fb957610fb86110b9565b5b828204905092915050565b6000610fcf8261105c565b9150610fda8361105c565b9250817fffffffffffffffffffffffffffffffffffffffffffffffffffffffffffffffff04831182151516156110135761101261108a565b5b828202905092915050565b60006110298261103c565b9050919050565b60008115159050919050565b600073ffffffffffffffffffffffffffffffffffffffff82169050919050565b6000819050919050565b600061107182611078565b9050919050565b60006110838261103c565b9050919050565b7f4e487b7100000000000000000000000000000000000000000000000000000000600052601160045260246000fd5b7f4e487b7100000000000000000000000000000000000000000000000000000000600052601260045260246000fd5b7f596f75206d75737420627579207769746820616d6f756e74206269676765722060008201527f7468616e20300000000000000000000000000000000000000000000000000000602082015250565b7f4e6f7420656e6f75676820746f6b656e73000000000000000000000000000000600082015250565b61116981611030565b811461117457600080fd5b50565b6111808161105c565b811461118b57600080fd5b5056fea264697066735822122041f3f687c514db19dd100afe10d4e6ecb44fb9948f01d26fe2925309c5caf9f064736f6c63430008040033",
  "immutableReferences": {},
  "source": "pragma solidity ^0.8.4;\r\n\r\nimport \"@openzeppelin/contracts/token/ERC20/IERC20.sol\";\r\n\r\n\r\ncontract TokenSale {\r\n    \r\n    IERC20 public tokenContract;  // the token being sold\r\n    uint256 public priceAngleRound;\r\n    uint256 public pricePrivate;              // the price, in wei, per token\r\n    uint256 public pricePublic;\r\n    uint256 public priceSeedRound;\r\n    address owner;\r\n    uint256 public tokensSold;\r\n    event Sold(address buyer, uint256 amount);\r\n\r\n    constructor(IERC20 _tokenContract, uint256 _priceSeedRound, uint256 _priceAngleRound, uint256 _pricePrivate, uint256 _pricePublic) public {\r\n        owner = msg.sender;\r\n        tokenContract = _tokenContract;\r\n        pricePrivate = _pricePrivate;\r\n        pricePublic = _pricePublic;\r\n        priceSeedRound = _priceSeedRound;\r\n        priceAngleRound = _priceAngleRound;\r\n    }\r\n\r\n    // Guards against integer overflows\r\n    function safeMultiply(uint256 a, uint256 b) internal pure returns (uint256) {\r\n        if (a == 0) {\r\n            return 0;\r\n        } else {\r\n            uint256 c = a * b;\r\n            assert(c / a == b);\r\n            return c;\r\n        }\r\n    }\r\n\r\n    function buyTokensSeedRound(uint256 value) public payable {\r\n        require(value > 0, \"You must buy with amount bigger than 0\");\r\n\r\n        uint256 numberOfTokens = value * 100 / priceSeedRound * 10e18;\r\n\r\n        require(tokenContract.balanceOf(owner) >= numberOfTokens, \"Not enough tokens\");\r\n\r\n        emit Sold(msg.sender, numberOfTokens);\r\n        \r\n        tokensSold += numberOfTokens;\r\n\r\n        require(tokenContract.transferFrom(owner, msg.sender, numberOfTokens));\r\n    }\r\n\r\n    function buyTokensAngleRound(uint256 value) public payable {\r\n        require(value > 0, \"You must buy with amount bigger than 0\");\r\n\r\n        uint256 numberOfTokens = value * 100 / priceAngleRound * 10e18;\r\n\r\n        require(tokenContract.balanceOf(owner) >= numberOfTokens, \"Not enough tokens\");\r\n\r\n        emit Sold(msg.sender, numberOfTokens);\r\n        \r\n        tokensSold += numberOfTokens;\r\n\r\n        require(tokenContract.transferFrom(owner, msg.sender, numberOfTokens));\r\n    }\r\n\r\n    function buyTokensPrivate(uint256 value) public payable {\r\n\r\n        require(value > 0, \"You must buy with amount bigger than 0\");\r\n\r\n        uint256 numberOfTokens = value * 100 / pricePrivate * 10e18;\r\n\r\n        require(tokenContract.balanceOf(owner) >= numberOfTokens, \"Not enough tokens\");\r\n\r\n        emit Sold(msg.sender, numberOfTokens);\r\n        \r\n        tokensSold += numberOfTokens;\r\n\r\n        require(tokenContract.transferFrom(owner, msg.sender, numberOfTokens));\r\n    }\r\n\r\n    function buyTokensPublic(uint256 value) public payable {\r\n\r\n        require(value > 0, \"You must buy with amount bigger than 0\");\r\n\r\n        uint256 numberOfTokens = value * 100 / pricePublic * 10e18;\r\n\r\n        require(tokenContract.balanceOf(owner) >= numberOfTokens, \"Not enough tokens\");\r\n\r\n        emit Sold(msg.sender, numberOfTokens);\r\n        \r\n        tokensSold += numberOfTokens;\r\n\r\n        require(tokenContract.transferFrom(owner, msg.sender, numberOfTokens));\r\n    }\r\n}",
  "sourcePath": "D:\\blockchain-xgage\\contracts\\SaleToken.sol",
  "compiler": {
    "name": "solc",
    "version": "0.8.4+commit.c7e474f2.Emscripten.clang"
  },
  "schemaVersion": "3.4.3",
  "updatedAt": "2022-07-13T15:08:54.140Z",
  "networkType": "ethereum",
  "devdoc": {
    "kind": "dev",
    "methods": {},
    "version": 1
  },
  "userdoc": {
    "kind": "user",
    "methods": {},
    "version": 1
  }
}